:100000000C94431A0C94741A0C94741A0C94741A69
:100010000C94741A0C94741A0C94741A0C94741A28
:100020000C94741A0C94741A0C94741A0C94741A18
:100030000C94741A0C94741A0C94741A0C94741A08
:100040000C94741A0C94C1CF0C94741A0C94741AF6
:100050000C94741A0C94741A0C9424A90C948BFBB1
:100060000C94741A0C947A3B0C94741A0C94741AB1
:100070000C94741A0C94741A0C94741A0C94741AC8
:100080000C94741A0C94741A0C94741A0C94741AB8
:100090000C94741A0C94741A0C94741A0C94741AA8
:1000A0000C94741A0C94741A0C94741A0C94741A98
:1000B0000C94741A0C94741A0C94741A0C94741A88
:1000C0000C94741A0C94741A0C94741A0C94741A78
:1000D0000C94741A0C94741A0C94741A0C94741A68
:1000E0000C94741AC4EDCDEDD7EDE0EDE9ED04EE1E
:1000F00011EE1AEEF2EDFBEDC7F9CAF9B9F9BDF947
:10010000C3F901FACEF9D2F9D8F9DCF9E0F9E6F948
:10011000EAF9EEF901FAF4F9F8F9FCF9A7FAACFA00
:10012000B1FABBFAC5FA3EFBCFFAD7FADFFAE9FA21
:10013000F3FAFDFA0CFB16FB3EFB20FB2AFB34FB1B
:10014000084AD73B3BCE016E84BCBFFDC12F3D6C3E
:1001500074319ABD56833DDA3D00C77F11BED9E4A4
:10016000BB4C3E916BAAAABE000000803F05A84C84
:10017000CDB2D44EB93836A9020C50B99186880850
:100180003CA6AAAA2ABE000000803F000D942B13B3
:100190000D9458150D9461120D94F3130D941B31A9
:1001A0000D94EC300D94BC070D94561B0D94AB2DA3
:1001B0000D94B6230D94B0230D94AE230D944A30C4
:1001C0000D94531B0D94FF390D946B120D94B314C1
:1001D0000D94511B0D94731F0D94B71C0D94613A2F
:1001E0000D9466210D9456150D94D6100D94BA08F1
:1001F0000D945C310D94711F0D946A120D9465304D
:100200000D94B3230D94CB304E414E494E49545971
:10021000494E46CDCCCC3D0AD7233C17B7D13877D1
:10022000CC2B329595E6241FB14F0A0000204100E7
:1002300000C84200401C4620BCBE4CCA1B0E5AAE31
:10024000C59D7447322F473320626164207061720C
:10025000616D65746572730A00536C6565702E2E4E
:100260002E00205A3A200020593A2000426564208E
:10027000583A2000456E642066696C65206C69738D
:10028000740A00426567696E2066696C65206C6956
:1002900073740A004D3132350046696C652064651F
:1002A0006C657465643A0044656C6574696F6E20B2
:1002B0006661696C65642C2046696C653A20006F44
:1002C00070656E206661696C65642C2046696C659A
:1002D0003A20006F6E2E0A006F66662E0A004732C3
:1002E0003620446562756720004B494C4C45442ECE
:1002F000200042656420646F6E652E0020573A002E
:100300004265642048656174696E672E00416E79AC
:100310006375626963207C20204F66662E00454D20
:10032000455247454E43595F504152534552004351
:100330004153455F4C494748545F425249474854EE
:100340004E45535300544F47474C455F4C4947482F
:10035000545300534F4654574152455F504F5745F1
:1003600052004255494C445F50455243454E54005B
:100370004C4556454C494E475F44415441005A5FF5
:1003800050524F4245004155544F4C4556454C0044
:100390005052494E545F4A4F420050524F475245C7
:1003A0005353004155544F5245504F52545F54459A
:1003B0004D5000564F4C554D45545249430045450C
:1003C00050524F4D0053455249414C5F584F4E5F7C
:1003D000584F4646004649524D574152455F4E419F
:1003E0004D453A4D61726C696E20312E312E3820A8
:1003F000284769746875622920534F555243455FF9
:10040000434F44455F55524C3A68747470733A2FA9
:100410002F6769746875622E636F6D2F4D61726C02
:10042000696E4669726D776172652F4D61726C6994
:100430006E2050524F544F434F4C5F5645525349D4
:100440004F4E3A312E30204D414348494E455F547E
:100450005950453A416E796375626963207C20206A
:1004600045585452554445525F434F554E543A31C6
:1004700020555549443A63656465326132662D34CE
:100480003161322D343734382D396231322D6335B4
:10049000356336326633363766660A002F2F200002
:1004A00066696C616D656E743A20007A5F6D617883
:1004B0003A20007A5F6D696E3A2000795F6D61784D
:1004C0003A2000785F6D61783A20005265706F7253
:1004D00074696E6720656E6473746F7020737461E5
:1004E0007475730A004D31343520533C696E646570
:1004F000783E206F7574206F662072616E6765208C
:1005000028302D31290A0053657474696E672054B0
:10051000726176656C20416363656C6572617469B4
:100520006F6E3A200053657474696E67205265746B
:100530007261637420416363656C65726174696F95
:100540006E3A200053657474696E67205072696E4C
:100550007420416363656C65726174696F6E3A20E3
:100560000053657474696E67205072696E742061FF
:100570006E642054726176656C20416363656C65BE
:10058000726174696F6E3A2000205A002059005839
:100590000020204D61783A2000205A002059005850
:1005A0000020204D696E3A20004F6E20004F666695
:1005B00000536F667420656E6473746F70733A20B5
:1005C000000001363726FF023C3D38FF0F2E303E3B
:1005D0001213FF0C0809FFFF071A1C18FFFF08443D
:1005E0000A2C43FFFFFFFFFFFF20643A0020693A17
:1005F0000020703A0043290A0061626C656420287B
:100600006D696E2074656D702000436F6C642065A9
:100610007874727564657320617265200023646567
:1006200066696E65202044454641554C545F4B64D5
:10063000200023646566696E652020444546415567
:100640004C545F4B69200023646566696E65202009
:1006500044454641554C545F4B702000504944205E
:100660004175746F74756E652066696E697368652F
:1006700064212050757420746865206C6173742047
:100680004B702C204B6920616E64204B6420636F9B
:100690006E7374616E74732066726F6D2062656C28
:1006A0006F7720696E746F20436F6E66696775722D
:1006B0006174696F6E2E680A005049442041757458
:1006C0006F74756E65206661696C6564212074695C
:1006D0006D656F75740A00544845524D414C205267
:1006E000554E4157415900546865726D616C2052F6
:1006F000756E617761790048656174696E6720661F
:1007000061696C65640048656174696E6720666143
:10071000696C656400504944204175746F74756E4E
:1007200065206661696C6564212054656D70657231
:10073000617475726520746F6F20686967680A005C
:10074000204B643A2000204B693A2000204B703A3D
:1007500020000A20436C6173736963205049442070
:100760000A002054753A2000204B753A2000206D75
:1007700061783A2000206D696E3A200020643A20AA
:100780000020626961733A20004F66660A00466184
:100790006465204865696768742000426564204C80
:1007A0006576656C696E6720004661696C656420DA
:1007B000746F20656E61626C6520426564204C65D3
:1007C00076656C696E670A004D65736820706F69A5
:1007D0006E742063616E6E6F742062652072657343
:1007E0006F6C7665640A004D34323120696E636F38
:1007F000727265637420706172616D6574657220D8
:1008000075736167650A003A2000207A5F6D696E32
:100810003A20202D3430207A5F6D61783A202032E2
:10082000300A0050726F6265205A204F6666736509
:1008300074004163746976652045787472756465E7
:10084000723A2000556E6B6E6F776E20636F6D6D20
:10085000616E643A2022004D6573682056616C69B0
:10086000646174696F6E2053746F707065642E00DC
:10087000696E206D6F76655F746F282920666565E7
:10088000645F76616C756520666F722058593A0016
:100890004C656176696E67204732360047323620F4
:1008A00048656174696E67204E6F7A7A6C652E00B8
:1008B0004732362048656174696E67204265642E50
:1008C00000446F6E65205072696D696E6700446FF9
:1008D0006E65205072696D696E670046697865645F
:1008E000204C656E677468205072696D652E0055E6
:1008F0007365722D436F6E74726F6C6C65642050FB
:1009000072696D65002C2065793D0029202D3E20FF
:100910002865783D002C2073793D0020436F6E6E72
:10092000656374696E672077697468207665727490
:100930006963616C206C696E65202873783D002CBA
:100940002065793D0029202D3E202865783D002C2A
:100950002073793D0020436F6E6E656374696E6726
:10096000207769746820686F72697A6F6E74616C41
:10097000206C696E65202873783D004C656176694E
:100980006E6720473236002C2079693D00202020F8
:10099000446F696E6720636972636C652061743AA5
:1009A000202878693D003F53706563696669656416
:1009B00020582C5920636F6F7264696E61746520D2
:1009C0006F7574206F6620626F756E64732E0A00F7
:1009D0003F28522965706561742076616C756520C9
:1009E0006E6F7420706C61757369626C653B206D0D
:1009F000757374206265206174206C656173742066
:100A0000312E0A003F537065636966696564206E24
:100A10006F7A7A6C652074656D7065726174757239
:100A200065206E6F7420706C61757369626C652EE1
:100A30000A003F5370656369666965642066696C86
:100A4000616D656E742073697A65206E6F742070B5
:100A50006C61757369626C652E0A003F5370656343
:100A60006966696564207072696D65206C656E6782
:100A70007468206E6F7420706C61757369626C6548
:100A80002E0A003F537065636966696564206E6F66
:100A90007A7A6C652073697A65206E6F7420706C49
:100AA00061757369626C652E0A003F5370656369F6
:100AB000666965642052657472616374696F6E2043
:100AC0004D756C7469706C696572206E6F742070FE
:100AD0006C61757369626C652E0A003F52657472B1
:100AE000616374696F6E204D756C7469706C6965B3
:100AF00072206D757374206265207370656369661A
:100B00006965642E0A003F537065636966696564B0
:100B1000206C6179657220686569676874206E6F02
:100B20007420706C61757369626C652E0A003F53A6
:100B30007065636966696564206265642074656DCB
:100B40007065726174757265206E6F7420706C616F
:100B5000757369626C652E0A0047323620636F6DCB
:100B60006D616E6420737461727465642E205761C8
:100B70006974696E6720666F72206865617465725A
:100B80002873292E0A002569730025696D202569BF
:100B900073002569682025696D2025697300256922
:100BA00064202569682025696D2025697300256901
:100BB0007920256964202569682025696D202569CB
:100BC00073004C696E65204E756D626572206973A5
:100BD000206E6F74204C617374204C696E65204EDA
:100BE000756D6265722B312C204C617374204C69D9
:100BF0006E653A20004B494C4C45442E200053541E
:100C00004F505045442E20005072696E746572201A
:100C100073746F707065642064756520746F2065EF
:100C200072726F72732E2046697820746865206531
:100C300072726F7220616E6420757365204D393950
:100C40003920746F20726573746172742E20285479
:100C5000656D706572617475726520697320726567
:100C60007365742E20536574206974206166746501
:100C7000722072657374617274696E67290A004E1E
:100C80006F20436865636B73756D207769746820A6
:100C90006C696E65206E756D6265722C204C617397
:100CA00074204C696E653A2000636865636B7375E8
:100CB0006D206D69736D617463682C204C61737471
:100CC000204C696E653A20004D313130004D333192
:100CD0000053442072656164206572726F720A006D
:100CE000446F6E65207072696E74696E6720666904
:100CF0006C650A0020496E76616C696420657874C1
:100D0000727564657220000000DCC20000DCC20065
:100D10000000000000DC420000DC42004093435031
:100D2000726F62696E67206661696C65640A005063
:100D3000726F62696E67206661696C656400205A33
:100D40003A200020593A200042656420583A200099
:100D500042696C696E656172204C6576656C696E7E
:100D60006720477269643A0A00436F70792074689B
:100D70006573652076616C75657320746F20436FB1
:100D80006E66696775726174696F6E2E68002041C6
:100D90005F464143544F523A200020525F46414340
:100DA000544F523A2000485F464143544F523A2034
:100DB0000054756E696E6720540054756E696E67D5
:100DC00020520054756E696E672045004155544F9E
:100DD0002054554E4520626173656C696E6500252F
:100DE0003033692E7800302E25303369002073644B
:100DF0003A00737464206465763A00737464206406
:100E000065763A004E6F20636F6E76657267656E29
:100E1000636500497465726174696F6E203A2025BC
:100E200030326900536176652077697468204D35EA
:100E3000303020616E642F6F7220636F7079207480
:100E40006F20436F6E66696775726174696F6E2E8D
:100E50006800253033692E7800302E253033690044
:100E600043616C6962726174696F6E2073643A00E9
:100E7000726F6C6C696E67206261636B2E007374B5
:100E800064206465763A0043616C696272617469DA
:100E90006F6E204F4B00456E64204452592D5255C1
:100EA0004E00436F72726563742064656C74615F99
:100EB0007261646975732077697468204D363635C0
:100EC0002052206F7220656E642D73746F707320D2
:100ED00077697468204D36363620582059205A00DC
:100EE00020284452592D52554E2900436865636BA2
:100EF000696E672E2E2E204143003F284D36363531
:100F000020422965642072616469757320697320C9
:100F1000696D706C61757369626C652E0A00473388
:100F200033204175746F2043616C6962726174652E
:100F30000A003F2846296F726365206974657261F3
:100F400074696F6E20697320696D706C6175736967
:100F5000626C652028302D3330292E0A003F28434B
:100F600029616C6962726174696F6E207072656369
:100F70006973696F6E20697320696D706C61757338
:100F800069626C6520283E3D30292E0A003F2856B4
:100F9000296572626F7365206C6576656C20697374
:100FA00020696D706C61757369626C652028302DE5
:100FB00033292E0A003F2850296F696E7473206907
:100FC0007320696D706C61757369626C652028307F
:100FD0002D3130292E0A00486F6D696E67206661D9
:100FE000696C65640A00486F6D696E6720666169A7
:100FF0006C656400000000000000000000409343A6
:1010000020706F736974696F6E206F7574206F66DE
:101010002072616E67652E0A003F50726F62652014
:10102000004D3530300A4732382046343030300AEF
:101030004D383400202844525952554E2900473229
:1010400039204175746F20426564204C6576656C6B
:10105000696E670028422961636B00284629726F18
:101060006E74002852296967687400284C296566E7
:1010700074003F2856296572626F7365206C65762F
:10108000656C20697320696D706C61757369626C41
:10109000652028302D34292E0A00426164205A2010
:1010A00076616C75650A004E6F2062696C696E65C9
:1010B000617220677269640A00202000202052615A
:1010C000646975733A00547A0054790054780020AA
:1010D000205261646975733A00457A00457900458C
:1010E00078002E4865696768743A007879007A78E4
:1010F00000797A00207A0020790020780063002EA1
:10110000202020200053442063617264206F6B0A0A
:10111000006F70656E526F6F74206661696C6564F4
:101120000A00766F6C756D652E696E697420666154
:10113000696C65640A00534420696E6974206661B5
:10114000696C0A006175746F25692E67004D323431
:10115000004D32332025730057726974696E672021
:10116000746F2066696C653A20006F70656E20664A
:1011700061696C65642C2046696C653A20006F706B
:10118000656E206661696C65642C2046696C653A01
:10119000200046696C652073656C65637465640A3C
:1011A000002053697A653A200046696C65206F70AB
:1011B000656E65643A20006F70656E206661696CCB
:1011C00065642C2046696C653A20002066696C6570
:1011D0003A2000646F696E67006672657368004E3E
:1011E0006F772000454E4420535542524F55544985
:1011F0004E450A002220706F7300222070617265D4
:101200006E743A2200535542524F5554494E452070
:1012100043414C4C207461726765743A22004B491B
:101220004C4C45442E2000747279696E6720746FAF
:101230002063616C6C207375622D67636F64652039
:1012400066696C6573207769746820746F6F206DB0
:10125000616E79206C6576656C732E204D41582047
:101260006C6576656C2069733A004572726F723AEC
:10127000005374616E6461726420446576696174C0
:10128000696F6E3A20002052616E67653A20002037
:101290004D61783A2000204D696E3A20004D65611D
:1012A0006E3A200046696E6973686564210A002001
:1012B00072616E67653A2000206D61783A200020E7
:1012C0006D696E3A2000207369676D613A200020D5
:1012D0006D65616E3A20003A207A3A2000206F66F0
:1012E0002000205A00205900205800476F696E677F
:1012F00020746F3A002C200050756C6C696E67206A
:10130000706F696E7420746F7761726473206365A7
:101310006E7465723A00436C6F636B776973650A2C
:1013200000436F756E7465722D00204469726563A9
:1013300074696F6E3A2000202020616E676C653AF8
:1013400020005374617274696E67207261646975FC
:10135000733A2000506F736974696F6E696E67200D
:101360007468652070726F62652E2E2E0A003F4EE3
:10137000756D626572206F66206C65677320696E9B
:10138000206D6F76656D656E74206E6F7420706C65
:1013900061757369626C652028302D3135292E0AFC
:1013A000003F2028582C5929206C6F636174696FA5
:1013B0006E206F757473696465206F662070726F3C
:1013C000626561626C65207261646975732E0A00E2
:1013D0003F53616D706C652073697A65206E6F7420
:1013E00020706C61757369626C652028342D35300E
:1013F000292E0A004D3438205A2D50726F62652014
:101400005265706561746162696C697479205465B4
:1014100073740A003F2856296572626F7365206CE9
:101420006576656C20697320696D706C6175736990
:10143000626C652028302D34292E0A006D00466923
:101440006C616D656E7420757365643A2000537429
:101450006174733A20002C204C6F6E6765737420A2
:101460006A6F623A2000546F74616C2074696D6514
:101470003A200053746174733A20002C204661694D
:101480006C65643A20002C2046696E697368656457
:101490003A20005072696E74733A2000537461747C
:1014A000733A200045256920257300416E796375E4
:1014B000626963207C202072656164792E006F6B05
:1014C0000020204D383531205A005A2D50726F625D
:1014D00065204F666673657420286D6D293A0A0091
:1014E00020440020490020204D333031205000504E
:1014F00049442073657474696E67733A0A00204624
:101500000020420020480020204D31343520530077
:101510004D6174657269616C2068656174757020D5
:10152000706172616D65746572733A0A00205A00C9
:10153000205900205800204200205300204800205D
:10154000520020204D363635204C0044656C7461C5
:101550002073657474696E67733A204C3C646961EA
:10156000676F6E616C5F726F643E20523C726164A3
:101570006975733E20483C6865696768743E20530E
:101580003C7365676D656E74735F7065725F733E03
:1015900020423C63616C6962726174696F6E207293
:1015A00061646975733E2058595A3C746F7765724F
:1015B00020616E676C6520636F7272656374696F1A
:1015C0006E733E0A00205A0020590020204D363606
:1015D00036205800456E6473746F702061646A75BC
:1015E00073746D656E743A0A00205A0020204D34E1
:1015F00032302053004175746F20426564204C6581
:1016000076656C696E673A0A00204500205A002012
:10161000590020580020420020540020204D323034
:1016200035205300416476616E6365643A20533C13
:101630006D696E5F66656564726174653E20543CD9
:101640006D696E5F74726176656C5F666565647204
:101650006174653E20423C6D696E5F7365676D65C0
:101660006E745F74696D655F75733E20583C6D6183
:10167000785F78795F6A65726B3E205A3C6D61785D
:101680005F7A5F6A65726B3E20453C6D61785F658D
:101690005F6A65726B3E0A002054002052002020D1
:1016A0004D323034205000416363656C6572617463
:1016B000696F6E2028756E6974732F7332293A2012
:1016C000503C7072696E745F616363656C3E20525A
:1016D0003C726574726163745F616363656C3E2024
:1016E000543C74726176656C5F616363656C3E0A3D
:1016F00000204500205A0020590020204D32303172
:101700002058004D6178696D756D20416363656C8B
:1017100065726174696F6E2028756E6974732F73BA
:1017200032293A0A00204500205A00205900202082
:101730004D3230332058004D6178696D756D2066EB
:1017400065656472617465732028756E6974732FA2
:1017500073293A0A00204500205A00205900202011
:101760004D393220580053746570732070657220B3
:10177000756E69743A0A0020204D323030204430B2
:101780000A0020204D32303020440020446973612B
:10179000626C65640A0046696C616D656E742073E5
:1017A000657474696E67733A0020204D31343920B6
:1017B00043203B20556E69747320696E2043656C2D
:1017C000736975730A002020473231202020203BA6
:1017D00020556E69747320696E206D6D0A007C3C23
:1017E0003E5E2B3D3F2F5B5D3B2C2A225C00457209
:1017F000726F722077726974696E6720746F20450A
:101800004550524F4D210A00290A00206279746523
:10181000733B20637263200053657474696E677351
:101820002053746F726564202800202863616C6304
:10183000756C6174656429210A0020213D200045F2
:101840004550524F4D20435243206D69736D617472
:101850006368202D202873746F7265642920002925
:101860000A002062797465733B2063726320002054
:1018700073746F7265642073657474696E67732026
:10188000726574726965766564202800204D617206
:101890006C696E3D563437290A0028454550524F31
:1018A0004D3D00454550524F4D2076657273696F2E
:1018B0006E206D69736D61746368200048617264A5
:1018C000636F6465642044656661756C742053655C
:1018D0007474696E6773204C6F616465640A00B844
:1018E0000B0000B80B0000B80B0000B80B000000A4
:1018F00000484300004843000048430000484300BC
:1019000000A0420000A0420000A0420000C042002F
:101910000020002300260029002C002F00320000A8
:101920000100000301060109010505050507050879
:10193000080808020202020A0A0808040404040152
:101940000101010101010103030303030303030474
:101950000707070C0C0C0C0C0C0C0C020202020604
:10196000060606060606060B0B0B0B0B0B0B0B01F4
:1019700002102020080810204010204080020102A0
:101980000108040201010204081020408080402068
:1019900010080402018004020180402010080402A3
:1019A0000108040201010204081020408001020421
:1019B000081020408000000A0B02090C0D0E0807D9
:1019C000030401000000000000000000000000000F
:1019D0000000000000000000000000000000000007
:1019E00000121110000000000000000000000000C4
:1019F00000000000000000000000004B494C4C4576
:101A0000442E2000202D20496E76616C696420658B
:101A100078747275646572206E756D6265722021CE
:101A20000A0020004D61726C696E20312E312E3714
:101A30002000416E796375626963204C2B20002081
:101A400000687474703A2F2F6D61726C696E6677DE
:101A50002E6F726700687474703A2F2F6D61726C0C
:101A6000696E66772E6F72670020312E312E380036
:101A70002020506C616E6E657242756666657242BA
:101A8000797465733A20002046726565204D656D56
:101A90006F72793A2000436F6D70696C65643A200B
:101AA0004D617220323520323031380A00207C20DE
:101AB000417574686F723A20284E656E65782C20E7
:101AC0006C696E65617220706C7573290A00323022
:101AD00031372D31322D32352031323A303000203D
:101AE0004C61737420557064617465643A200031F0
:101AF0002E312E380A004D61726C696E0020536FD2
:101B00006674776172652052657365740A002057A8
:101B100061746368646F672052657365740A00209E
:101B200042726F776E206F75742052657365740A08
:101B3000002045787465726E616C2052657365741F
:101B40000A00506F77657255700A00737461727481
:101B50000A006572726F722077726974696E67200D
:101B6000746F2066696C650A00456E6473746F70EB
:101B70007320256320256320256320256300205AD8
:101B80003A0020593A0020583A00656E6473746F29
:101B90007073206869743A2000446F6E6520736129
:101BA00076696E672066696C652E0A004D323900D1
:101BB0002CFFFFFFFF00010101016265640A002C98
:101BC0002073797374656D2073746F707065642110
:101BD000204865617465725F49443A200048656138
:101BE00074696E67206661696C656400486561743C
:101BF000696E67206661696C656400486561746937
:101C00006E67206661696C65640048656174696E21
:101C100067206661696C65640070012C0190012782
:101C200001B0012201C0011D01F0011801100213D1
:101C30000130020E016002090190020401C002FF9E
:101C4000000003FA004003F5008003F000D003EB2E
:101C5000002004E6007004E100E004DC004005D749
:101C600000C005D2004006CD00D006C8008007C3E2
:101C7000003008BE00F008B900C009B400B00AAFD7
:101C800000B00BAA00D00CA500000EA000500F9BC6
:101C900000C01096005012910000148C00C01587EF
:101CA00000B0178200B0197D00D01B7800001E73B1
:101CB0000040206E0090226900F024640040275FFD
:101CC0000090295A00E02B5500102E500020304B78
:101CD0000010324600E033410090353C00103737A9
:101CE0000070383200A0392D00B03A2800A03B2304
:101CF00000603C1E00103D1900903D1400103E0F86
:101D000000703E0A00C03E0500003F0000403FFB5F
:101D1000FF803FF6FFC03FF1FF544845524D414C14
:101D20002052554E4157415900546865726D616C9F
:101D30002052756E61776179004572723A204D4983
:101D40004E54454D5020424544004572723A204D54
:101D5000494E54454D50004D494E54454D50207408
:101D60007269676765726564004572723A204D4119
:101D70005854454D5020424544004572723A204D1A
:101D8000415854454D50004D415854454D502074D4
:101D9000726967676572656400202F002042403ACF
:101DA0000020403A00496E697469616C697A652067
:101DB000454550524F4D00436F6E74726F6C005228
:101DC0006573746F7265206661696C736166650026
:101DD0004C6F61642073657474696E677300496E3B
:101DE000697469616C697A6520454550524F4D00B0
:101DF00053746F72652073657474696E67730046FF
:101E0000696C616D656E74004D6F74696F6E00541E
:101E1000656D7065726174757265004D61696E0003
:101E2000507265686561742041425320636F6E662D
:101E3000005072656865617420504C4120636F6E7C
:101E400066005049442D44005049442D44005049F7
:101E5000442D49005049442D49005049442D50001B
:101E60005049442D50002002204661637400200236
:101E70002046616374002002204D6178002002201A
:101E80004D6178002002204D6178002002204D69CC
:101E90006E002002204D696E002002204D696E0008
:101EA0004F6666004F6E20004175746F74656D70EB
:101EB0000046616E2073706565640046616E207334
:101EC000706565640042656400426564004E6F7A27
:101ED0007A6C65004E6F7A7A6C6500436F6E74722F
:101EE0006F6C0053746F72652073657474696E67EC
:101EF000730042656400426564004E6F7A7A6C65D7
:101F0000004E6F7A7A6C650046616E20737065656D
:101F1000640046616E2073706565640054656D7081
:101F2000657261747572650056652D6A65726B0025
:101F300056652D6A65726B0056652D6A65726B0079
:101F4000567A2D6A65726B00567A2D6A65726B003F
:101F5000567A2D6A65726B0056792D6A65726B0030
:101F600056792D6A65726B0056792D6A65726B0021
:101F700056782D6A65726B0056782D6A65726B0013
:101F800056782D6A65726B004D6F74696F6E0045EF
:101F900073746570732F6D6D004573746570732F66
:101FA0006D6D005A73746570732F6D6D005A737484
:101FB0006570732F6D6D005973746570732F6D6D3F
:101FC000005973746570732F6D6D0058737465706C
:101FD000732F6D6D005873746570732F6D6D004DA8
:101FE0006F74696F6E0053746570732F6D6D004A66
:101FF00065726B00416363656C65726174696F6ED5
:102000000056656C6F63697479005A204F66667379
:102010006574005A204F666673657400436F6E7472
:10202000726F6C0046696C2E204469612E0046690F
:102030006C2E204469612E004F6666004F6E2000B2
:102040004520696E206D6D3300436F6E74726F6C46
:102050000043616E6E6F7420656E746572207375D7
:10206000626469723A2000052E2E004D61696E008F
:1020700020746F6F206C6F6E672065787472757353
:10208000696F6E2070726576656E7465640A0020F3
:10209000636F6C6420657874727573696F6E2070FD
:1020A000726576656E7465640A00627573793A20AC
:1020B00070617573656420666F7220696E707574E7
:1020C0000A00627573793A207061757365642066E1
:1020D0006F7220757365720A00627573793A2070A9
:1020E000726F63657373696E670A004D3630300036
:1020F0004B494C4C45442E20004B494C4C206361CD
:1021000075736564206279204B494C4C206275746C
:10211000746F6E2F70696E0A004B494C4C45442E0B
:1021200020004B494C4C20636175736564206279D3
:1021300020746F6F206D75636820696E61637469C8
:1021400076652074696D65202D2063757272656EE9
:102150007420636F6D6D616E643A2000506C656130
:102160007365207265736574005052494E54455230
:102170002048414C544544005072696E7465722089
:1021800068616C7465642E206B696C6C282920630F
:10219000616C6C6564210A004368616E6765206646
:1021A000696C616D656E7400466C6F7700466C6F8C
:1021B000770046616E2073706565640046616E202D
:1021C00073706565640042656400426564004E6F2B
:1021D0007A7A6C65004E6F7A7A6C6500537065652B
:1021E00064005370656564004D61696E00507265EE
:1021F0006865617420504C4120456E6400507265E2
:102200006865617420504C412042656400507265DD
:102210006865617420504C41005072657061726550
:1022200000507265686561742041425320456E64B8
:1022300000507265686561742041425320426564B4
:1022400000507265686561742041425300507265A8
:102250007061726500507265686561742041425317
:10226000005072656865617420504C4100436F6F87
:102270006C646F776E0044656C74612043616C69B7
:1022800062726174696F6E004368616E6765206693
:10229000696C616D656E740044697361626C652080
:1022A0007374657070657273004D383400426564F4
:1022B000204C6576656C696E67004732380A473294
:1022C00039004175746F20686F6D650047323800C2
:1022D0004D6F76652061786973004D61696E0024E9
:1022E000F4D43050C38E20C2A24017828B701112DA
:1022F0007A910D816CD90AA861E108C75866076117
:102300005143061E4B5D05C145A7041A411104093E
:102310003D9803713931034036DB0265339102D4B5
:10232000305402802E1D02632CEE01752AC501B0C7
:1023300028A001102781018F2564012B244B01E087
:10234000223401AC211F018D200D01801FFC00846F
:102350001EED00971DDF00B81CD200E61BC6002052
:102360001BBC00641AB200B219A8000A19A0006AC6
:10237000189900D117910040178B00B516840031D1
:10238000167E00B31579003A157300C7146F005814
:10239000146A00EE1366008813630025135E00C7FD
:1023A000125B006C12570015125400C111510070DD
:1023B000114F0021114B00D61049008D10470046E7
:1023C00010440002104200C00F4000800F3E004247
:1023D0000F3C00060F3B00CB0E3800930E37005C1D
:1023E0000E3500270E3400F30D3200C10D31009080
:1023F0000D3000600D2E00320D2D00050D2C00D982
:102400000C2B00AE0C2900850C29005C0C27003534
:102410000C27000E0C2600E80B2400C40B2400A09F
:102420000B23007D0B23005A0B2100390B210018D0
:102430000B2000F80A1F00D90A1E00BB0A1E009DCF
:102440000A1D00800A1D00630A1C00470A1B002C9D
:102450000A1B00110A1A00F7091A00DD091900C445
:10246000091900AB091900920917007B09180063CC
:102470000917004C09160036091600200916000A33
:10248000091500F5081500E0081400CC081400B880
:10249000081400A4081400900813007D0812006BB3
:1024A00008130058081200460812003408110023CF
:1024B0000811001208110001081100F0071000E0D7
:1024C000071000D0071000C0071000B0070F00A1D0
:1024D00007100091070E0083070F0074070F0065B7
:1024E000070E0057070E0049070E003B070D002E90
:1024F000070E0020070D0013070D0006070D00F959
:10250000060C00ED060D00E0060C00D4060C00C819
:10251000060C00BC060C00B0060C00A4060B0099CB
:10252000060C008D060B0082060B0077060B006C74
:10253000060B0061060A0057060B004C060A004213
:10254000060A0038060A002E060A0024060A001AA7
:10255000060A001006090007060A00FD050900F436
:10256000050900EB050900E2050900D9050900D0BD
:10257000050900C7050900BE050900B5050800AD3D
:10258000050800A50509009C050800940508008CB5
:10259000050800840508007C050800740508006C27
:1025A000050700650508005D050700560508004E93
:1025B00005070047050700400508003805070031FA
:1025C0000507002A050700230507001C050600165D
:1025D0000507000F0507000805060002050700FBB8
:1025E000040600F5040700EE040600E8040600E215
:1025F000040700DB040600D5040600CF040600C96A
:10260000040600C3040600BD040600B7040600B1BA
:10261000040500AC040600A6040600A00405009B07
:1026200004060095040500900406008A0405008550
:10263000040500800406007A040500750405007096
:102640000405006B04050066040500610405005CD8
:1026500004050057040500520405004D0405004818
:10266000040500430405003E0404003A0405003557
:10267000040500300404002C040500270404002392
:102680000405001E0404001A0404001604050011C9
:102690000404000D040400090405000404040000FF
:1026A000040400FC030400F8030400F4030400F035
:1026B000030400EC030400E8030400E4030400E066
:1026C000030400DC030400D8030400D4030400D096
:1026D000030400CC030400C8030300C50303002463
:1026E000F404D9201BC40C5C0E9804C4095F026575
:1026F000077101F405F900FB04B30048048700C129
:102700000369005803550003034500BE023A0084E4
:1027100002310053022A002902250004022000E4AD
:10272000011C00C8011900AF0117009801140084B2
:10273000011300710110006101100051010E0043EE
:10274000010D0036010B002B010B0020010B0015C1
:102750000109000C01090003010800FB000800F357
:10276000000800EB000700E4000600DE000600D8C9
:10277000000600D2000600CC000500C7000500C21C
:10278000000500BD000400B9000400B5000400B15C
:10279000000400AD000400A9000400A5000300A28D
:1027A0000003009F0004009B0003009800030095B5
:1027B00000020093000300900003008D0002008BD4
:1027C00000030088000200860002008400030081EC
:1027D0000002007F0002007D0002007B0002007901
:1027E000000200770001007600020074000200720F
:1027F000000100710002006F0002006D0001006C1A
:102800000002006A00010069000200670001006622
:102810000001006500010064000200620001006127
:10282000000100600001005F0002005D0001005C2B
:102830000001005B0001005A00010059000100582E
:10284000000100570001005600010055000100542E
:10285000000100530000005300010052000100512C
:10286000000100500001004F0001004E0000004E2A
:102870000001004D0001004C0001004B0000004B26
:102880000001004A00010049000100480000004822
:10289000000100470001004600000046000100451D
:1028A0000000004500010044000100430000004317
:1028B0000001004200000042000100410000004110
:1028C000000100400001003F0000003F0001003E09
:1028D0000000003E0001003D0000003D0001003C02
:1028E0000000003C0000003C0001003B0000003BF9
:1028F0000001003A0000003A0001003900000039F0
:1029000000010038000000380000003800010037E6
:1029100000000037000100360000003600000036DD
:1029200000010035000000350000003500010034D2
:1029300000000034000000340001003300000033C8
:1029400000000033000100320000003200000032BD
:1029500000010031000000310000003100010030B2
:1029600000000030000000300001002F0000002FA8
:102970000000002F0000002F0001002E0000002E9C
:102980000000002E0001002D0000002D0000002D91
:102990000000002D0001002C0000002C0000002C85
:1029A0000000002C0001002B0000002B0000002B79
:1029B0000000002B0001002A0000002A0000002A6D
:1029C0000000002A00010029000000290000002961
:1029D0000000002900000029000100280000002854
:1029E0000000002800000028000000280001002747
:1029F000000000270000002700000027000000273B
:102A0000000100260000002600000026000000262D
:102A10000000002600010025000000250000002520
:102A20000000002500000025000000250001002412
:102A30000000002400000024000000240000002406
:102A400000010023000000230000002300000023F9
:102A500000000023000000230000002300010022EA
:102A600000000022000000220000002200000022DE
:102A700000000022000100210000002100000021D0
:102A800000000021000000210000002100000021C2
:102A900000010020000000200000002000000020B5
:102AA00000000020000000200000002000000020A6
:102AB0000001001F0000001F0000001F0000001F99
:102AC0000000001F0000001F0000001F0001001E8A
:102AD0000000001E0000001E0000001E0000004D4F
:102AE000383420582059205A20450020746F6F2018
:102AF0006C6F6E6720657874727573696F6E207085
:102B0000726576656E7465640A0020636F6C64207C
:102B1000657874727573696F6E2070726576656E14
:102B20007465640A0020204E6F7A7A6C653A200042
:102B30004261636B004D696E696D756D2054656D02
:102B400070206973203137302E0048656174696EDA
:102B500067206661696C65640045787472756465A8
:102B6000206D6F726500526573756D6520707269B6
:102B70006E7400524553554D45204F5054494F4EA9
:102B8000533A0020204E6F7A7A6C653A20006368D1
:102B9000616E6765006F66207468652066696C61A8
:102BA0006D656E74005761697420666F722073746E
:102BB000617274005052494E54205041555345445F
:102BC0000020204E6F7A7A6C653A200066696C614D
:102BD0006D656E7420756E6C6F6164005761697409
:102BE00020666F72005052494E5420504155534553
:102BF000440020204E6F7A7A6C653A2000506C6554
:102C000061736520776169742E2E2E0048656174AA
:102C1000696E67206E6F7A7A6C65005052494E5427
:102C2000205041555345440020204E6F7A7A6C6500
:102C30003A200068656174206E6F7A7A6C652E00A8
:102C4000507265737320627574746F6E20746F00B8
:102C50005052494E54205041555345440020204E77
:102C60006F7A7A6C653A2000746F20636F6E7469B6
:102C70006E75652E2E2E00616E6420707265737302
:102C800020627574746F6E00496E7365727420668D
:102C9000696C616D656E74005052494E542050410C
:102CA000555345440020204E6F7A7A6C653A2000D7
:102CB00066696C616D656E74206C6F61640057614C
:102CC000697420666F72005052494E54205041552D
:102CD0005345440020204E6F7A7A6C653A20006696
:102CE000696C616D656E74206578747275646500D9
:102CF0005761697420666F72005052494E542050DB
:102D0000415553454400746F20726573756D6500BD
:102D10005761697420666F72207072696E7400501A
:102D200052494E54205041555345440043616C690B
:102D30006272617465205A0043616C6962726174E9
:102D40006520590043616C696272617465205800A6
:102D50004175746F20686F6D650044656C74612007
:102D600053657474696E6773004C6F61642073659A
:102D70007474696E67730043616C69627261746533
:102D80002043656E7465720053746F7265207365BD
:102D90007474696E6773005365742044656C746164
:102DA000204865696768740047333320503100411B
:102DB00075746F2043616C6962726174696F6E0033
:102DC000473333004D61696E004D6F7665205800C2
:102DD0004D6F76652059004D6F7665205A00457815
:102DE000747275646572004D6F766520302E316D9A
:102DF0006D004D6F766520316D6D004D6F766520ED
:102E000031306D6D004D6F766520617869730045D6
:102E100078747275646572004D6F7665205A004D46
:102E20006F76652059004D6F76652058004D6F769E
:102E3000696E672E2E2E0045787472756465720077
:102E40004175746F20686F6D6500473238004D6FB3
:102E50007665205A0046726565205859004D6F7698
:102E6000652059004D6F766520580050726570617D
:102E700072650043616E6E6F74206F70656E2073B3
:102E8000756264697220006563686F3A0000002112
:102E900000240027002A002D00300033000101002B
:102EA00000040107010A0100002200250028002B70
:102EB000002E003100340002010000050108010B62
:102EC00001656E7175657565696E67202200000089
:102ED0007042000070420000704200000000576124
:102EE000726E696E673A20486F6D696E6720427531
:102EF0006D702044697669736F72203C20310A003E
:102F00000606060000A0400000A0400000004000AF
:102F1000005C4300005C43004093430101014D36D7
:102F2000303020486F74656E6420746F6F20636F5B
:102F30006C6420746F206368616E67652066696CDD
:102F4000616D656E740A002F2F616374696F6E3A4C
:102F500070617573650A002F2F616374696F6E3A33
:102F6000726573756D650A000000000001020404BB
:102F70000000001C1C0C04040402010000000000FE
:102F80000408100000000000001C1F11111F0000A9
:102F90000006191803130C00040E1F041C00000087
:102FA000000E1315110E00001C1018170506050061
:102FB000040A0A0A0A11110E0C12120C0000000079
:102FC000001F1511151F000025753A2530327500B8
:102FD000253032753A25303275002D2D2D005344A1
:102FE000005A0059005800434F4D4D554E4943413A
:102FF00054494F4E0044525952554E004552524F7B
:10300000525300494E464F004543484F00486561C2
:1030100074696E6720646F6E652E0020573A004514
:10302000256920257300416E796375626963207C90
:10303000202072656164792E0008300330FC2FF582
:103040002FE72F6F66660044454255473A004D31E1
:103050003133205300205A3A0020593A0020436F60
:10306000756E7420583A0020453A00205A3A0020E4
:10307000593A00583A003A004361703A004E6F20C6
:1030800063617365206C696768740A0043617264E8
:103090002072656D6F766564004361726420696EAD
:1030A00073657274656400486F6D652025732573C0
:1030B0002573206669727374002066697273740ADE
:1030C000005A0059005800486F6D6520004732389B
:1030D0000A4732390A4D31313720486F6D65202655
:1030E000206C6576656C20446F6E65004732380A47
:1030F0004D37380A4D31313720486F6D6520262015
:103100005374617420446F6E65004732380A4D383D
:10311000340A4D31313720486F6D652026205374B5
:103120006570206F666620446F6E65004D313430E7
:10313000205337300A4D31303420533138300A476C
:1031400039312045313520463330300A4739322075
:1031500045300A473120452D3120463330300A4D65
:1031600031313720457874727564652020446F6E64
:1031700065004D3630300045787472756465722094
:1031800031356D6D20646520504C4100486F6D6590
:103190002026207374657070657273206F666600F8
:1031A000486F6D6520262053746174004368616E1A
:1031B0006765722064652066696C616D656E740078
:1031C000486F6D652026206C6576656C004D6169E1
:1031D0006E005072696E7420706175736564004D85
:1031E00031323500004D3234005072696E74206106
:1031F000626F72746564005072696E742066726FDB
:103200006D2053440053746F70207072696E7400A7
:10321000526573756D65207072696E74004E6F2013
:10322000534420636172640050617573652070724D
:10323000696E7400436F6E74726F6C0050726570CB
:103240006172650054756E6500437573746F6D200F
:10325000436F6D6D616E647300496E666F207363BA
:103260007265656E004D3630302042300056547223
:103270006176206D696E005654726176206D696EBC
:10328000005654726176206D696E00566D696E004D
:10329000566D696E00566D696E00566D61782045F9
:1032A00000566D6178204500566D617820450056C6
:1032B0006D6178205A00566D6178205A00566D6114
:1032C00078205A00566D6178205900566D6178203B
:1032D0005900566D6178205900566D61782058006C
:1032E000566D6178205800566D61782058004D6FFA
:1032F00074696F6E00416D6178204500416D6178A1
:10330000204500416D6178205A00416D6178205A56
:1033100000416D6178205900416D6178205900416C
:103320006D6178205800416D6178205800412D74FE
:10333000726176656C00412D74726176656C004136
:103340002D7265747261637400412D7265747261CF
:10335000637400416363656C00416363656C004D99
:103360006F74696F6E00526573656E643A20006F0A
:103370006B004D65736820706F696E742063616EB9
:103380006E6F74206265207265736F6C7665640A77
:1033900000526573756D696E67207072696E740096
:1033A000416E796375626963207C20207265616477
:1033B000792E00436C69636B20746F20726573759E
:1033C0006D652E2E2E004E6F206D6F76652E00538C
:1033D00044207072696E74696E672062797465202A
:1033E000004E6F74205344207072696E74696E676A
:1033F0000A005072696E742074696D653A2000503D
:10340000726F7465637465642050696E0A00486F5A
:103410006D696E672058595A0047323800547A0057
:10342000547A00547900547900547800547800524A
:1034300061646975730052616469757300457A004F
:10344000457A00457900457900457800457800487F
:1034500065696768740048656967687400446961F4
:103460006720526F64004469616720526F640044B2
:10347000656C74612043616C6962726174696F6E1E
:103480000000EE00E20011241FBECFEFD1E2DEBF4C
:10349000CDBF00E00CBF13E0A0E0B2E0E2E9FBE941
:1034A00002E00BBF02C007900D92AC3CB107D9F708
:1034B00025E1ACECB3E001C01D92A432B207E1F704
:1034C0001AE1C2E4DAE100E006C021970109802F89
:1034D000FE010F942D4DC134D10780E00807A9F7F4
:1034E0000F942F350D94B84D0C9400002F923F92FD
:1034F0004F925F926F927F928F929F92AF92BF9204
:10350000CF92DF92EF92FF920F931F93CF93DF93AF
:10351000CDB7DEB7C05AD1090FB6F894DEBF0FBEE3
:10352000CDBF81E090E09093361380933513809166
:1035300041148D3409F457C7843511F40C94843444
:10354000873411F00C94BF3480913F149091401453
:103550008C31910509F484C6ACF4843091053CF4B7
:1035600082309105D4F597FF31C00C94D6348A315E
:10357000910509F441C60CF043C6049709F4F5C55A
:103580000C94D6348A32910509F429C774F48E312B
:10359000910509F480C60CF47AC6819711F00C9459
:1035A000D6340E9464540C94D6348B35910509F4BA
:1035B0000DC78C35910509F40EC78A35910511F0B8
:1035C0000C94D6341092D1030C94D634809113020B
:1035D00081110C94DD340C94D634209113022223F3
:1035E00011F40C94D63411E0029709F010E00E9417
:1035F000D87382E50E94353C882309F45CC10E949F
:10360000D33B6B017C014090F4045090F504609032
:10361000F6047090F7042091F8043091F904409179
:10362000FA045091FB042B962CAF3DAF4EAF5FAF29
:103630002B978091E4049091E504A091E604B09169
:10364000E7042F968CAF9DAFAEAFBFAF2F97209101
:10365000E8043091E9044091EA045091EB046B9640
:103660002CAF3DAF4EAF5FAF6B9720E030E0A901CC
:10367000C701B6010F947A45882309F45CC5A301FC
:1036800092012F966CAD7DAD8EAD9FAD2F970F94AF
:103690007A45811111C02B962CAD3DAD4EAD5FAD7D
:1036A0002B976B966CAD7DAD8EAD9FAD6B970F94E8
:1036B0007A45882309F43FC520E030E0A901C7011D
:1036C000B6010F947A45881F8827881F18130BC0EE
:1036D00080E090E0A0E8BFE3A3968CAF9DAFAEAFD3
:1036E000BFAFA3970AC020E030E040E85FEBA396AD
:1036F0002CAF3DAF4EAF5FAFA397A30192012F96C2
:103700006CAD7DAD8EAD9FAD2F970F94E34967965D
:103710006CAF7DAF8EAF9FAF67972B962CAD3DAD55
:103720004EAD5FAD2B976B966CAD7DAD8EAD9FAD05
:103730006B970F94E3496F966CAF7DAF8EAF9FAFE1
:103740006F9767962CAD3DAD4EAD5FAD6797CA01E3
:10375000B9010F94DF454B015C016F962CAD3DAD77
:103760004EAD5FAD6F97CA01B9010F94DF459B0164
:10377000AC01C501B4010F94E4490F949D4C6396CC
:103780006CAF7DAF8EAF9FAF639720E030E040E03D
:103790005FE30F94DF454B015C01A7019601C70170
:1037A000B6010F94DF456B017C01A5019401C501B1
:1037B000B4010F94DF459B01AC01C701B6010F9422
:1037C000E3490F949D4C9B01AC01A3966CAD7DAD7C
:1037D0008EAD9FADA3970F94DF454B015C012F96F3
:1037E0002CAD3DAD4EAD5FAD2F97C301B2010F942F
:1037F000E44920E030E040E05FE30F94DF456B01F7
:103800007C016F966CAD7DAD8EAD9FAD6F9790587E
:1038100063962CAD3DAD4EAD5FAD63970F94C04A3E
:103820009B01AC01C501B4010F94DF459B01AC01C4
:10383000C701B6010F94E449A30192010F94E34933
:103840006B017C016B962CAD3DAD4EAD5FAD6B97C2
:103850002B966CAD7DAD8EAD9FAD2B970F94E4494B
:1038600020E030E040E05FE30F94DF452B013C01B6
:1038700063962CAD3DAD4EAD5FAD639767966CAD75
:103880007DAD8EAD9FAD67970F94C04A9B01AC0193
:10389000C501B4010F94DF459B01AC01C301B20126
:1038A0000F94E4492B962CAD3DAD4EAD5FAD2B97FB
:1038B0000F94E34914C089E40E94353C882329F021
:1038C0000E94D33B6B017C0103C0C12CD12C76013B
:1038D0008AE40E94353C8823F9F00E94D33B6B9622
:1038E0006CAF7DAF8EAF9FAF6B9720E030E0A9014A
:1038F000C701B6010F947A4581111EC020E030E067
:10390000A9016B966CAD7DAD8EAD9FAD6B970F949D
:103910007A45811111C00FC420E030E0A901C70130
:10392000B6010F947A45882309F405C46B961CAE42
:103930001DAE1EAE1FAE6B97D701C601B0582B96B9
:103940008CAF9DAFAEAFBFAF2B976B962CAD3DAD9F
:103950004EAD5FAD6B9750582F962CAF3DAF4EAF2D
:103960005FAF2F979C01AD01BC01CD010F94DF45E6
:103970004B015C012F962CAD3DAD4EAD5FAD2F9749
:10398000CA01B9010F94DF459B01AC01C501B40127
:103990000F94E4490F949D4CE3966CAF7DAF8EAFCE
:1039A0009FAFE3978091F4049091F504A091F60401
:1039B000B091F70463968CAF9DAFAEAFBFAF639786
:1039C000A7019601BC01CD010F94E449A3966CAF09
:1039D0007DAF8EAF9FAFA3972091F8043091F9048B
:1039E0004091FA045091FB046F962CAF3DAF4EAF5F
:1039F0005FAF6F976B962CAD3DAD4EAD5FAD6B97E6
:103A00006F966CAD7DAD8EAD9FAD6F970F94E44911
:103A1000A7966CAF7DAF8EAF9FAFA7978091E40460
:103A20009091E504A091E604B091E704AB968CAFC9
:103A30009DAFAEAFBFAFAB97A3962CAD3DAD4EAD36
:103A40005FADA397BC01CD010F94E3496B017C01ED
:103A50002091E8043091E9044091EA045091EB048C
:103A6000AF962CAF3DAF4EAF5FAFAF97A7962CADE3
:103A70003DAD4EAD5FADA797AF966CAD7DAD8EAD54
:103A80009FADAF970F94E3494B015C018091FC041B
:103A90009091FD04A091FE04B091FF04EB968CAFD1
:103AA0009DAFAEAFBFAFEB979C01AD016091EC0451
:103AB0007091ED048091EE049091EF040F94E3492E
:103AC00067966CAF7DAF8EAF9FAF67972091F00484
:103AD0003091F1044091F2045091F304E7962CAF39
:103AE0003DAF4EAF5FAFE797809100059091010524
:103AF000A0910205B0910305EF968CAF9DAFAEAFDC
:103B0000BFAFEF97A70196012B966CAD7DAD8EAD43
:103B10009FAD2B970F94DF452B013C01A50194012C
:103B20002F966CAD7DAD8EAD9FAD2F970F94DF4579
:103B30009B01AC01C301B2010F94E4492B013C018C
:103B4000A50194012B966CAD7DAD8EAD9FAD2B97ED
:103B50000F94DF454B015C01A70196012F966CADD8
:103B60007DAD8EAD9FAD2F970F94DF459B01AC01CE
:103B7000C501B4010F94E349A30192010F94574A80
:103B80006B017C0120E030E0A9010F947A4587FFAA
:103B90000AC02BED3FE049EC50E4C701B6010F9499
:103BA000E4496B017C01112351F02BED3FE049EC1E
:103BB00050E4C701B6010F94E3496B017C0120E09A
:103BC00030E0A901C701B6010F947A45811128C0E0
:103BD000AB962CAD3DAD4EAD5FADAB9763966CAD86
:103BE0007DAD8EAD9FAD63970F947A45811118C05E
:103BF000AF962CAD3DAD4EAD5FADAF976F966CAD52
:103C00007DAD8EAD9FAD6F970F947A45811108C041
:103C10004BEDC42E4FE0D42E49ECE42E40E4F42EBC
:103C2000E3962CAD3DAD4EAD5FADE397C701B60158
:103C30000F94DF459B01AC010F94DF454B015C0104
:103C400067962CAD3DAD4EAD5FAD6797CA01B9012A
:103C50000F94DF459B01AC01C501B4010F94E44909
:103C60000F949D4C4B015C012FE632E143E85AE38F
:103C70000F947A4587FD5BC2C501B4010F94594B7F
:103C80000F942D4B1B01672B19F422242394312C04
:103C9000B10180E090E00F947E454B015C019B01F7
:103CA000AC01C701B6010F94C04A63966CAF7DAFFB
:103CB0008EAF9FAF6397A501940167966CAD7DAD04
:103CC0008EAD9FAD67970F94C04AE3966CAF7DAF02
:103CD0008EAF9FAFE397EF962CAD3DAD4EAD5FAD90
:103CE000EF97E7966CAD7DAD8EAD9FADE7970F94E6
:103CF000E349A50194010F94C04AE7966CAF7DAFEC
:103D00008EAF9FAFE79763962CAD3DAD4EAD5FADE7
:103D10006397CA01B9010F94DF4520E030E040E02D
:103D20005FE30F94DF459B01AC0160E070E080E849
:103D30009FE30F94E349AB966CAF7DAF8EAF9FAF1F
:103D4000AB97EB962CAD3DAD4EAD5FADEB972987B4
:103D50003A874B875C87EF968CAD9DADAEADBFAD1E
:103D6000EF978D879E87AF87B88B60912F027091F8
:103D70003002072E000C880B990B0F948045209180
:103D800095023091960240919702509198020F94BB
:103D9000DF452AE037ED43E25CE30F94DF456BAF8C
:103DA0007CAF8DAF9EAF0E947FFB9B01AC0128537F
:103DB0003F4F4F4F5F4FAF962CAF3DAF4EAF5FAF12
:103DC000AF9728964FAC289729965FAC29972A96EB
:103DD0006FAC2A972B967FAC2B9741E050E06D9605
:103DE0005FAF4EAF6D9759E164965FAF64976D9684
:103DF000AEADBFAD6D97A215B30509F45BC10E94CE
:103E000024AC0E947FFBDC01CB01AF962CAD3DAD15
:103E10004EAD5FADAF97821B930BA40BB50BB7FDF7
:103E200011C00E947FFB9B01AC0128533F4F4F4FB5
:103E30005F4FAF962CAF3DAF4EAF5FAFAF9780E017
:103E40000E9481BD64963FAD6497315064963FAF48
:103E50006497332309F44BC0AB962CAD3DAD4EAD0A
:103E60005FADAB972F966CAD7DAD8EAD9FAD2F97AF
:103E70000F94DF456B017C0163962CAD3DAD4EADDB
:103E80005FAD6397B201C3010F94DF45A7019601AF
:103E90000F94E4496B017C01AB962CAD3DAD4EAD6A
:103EA0005FADAB97B201C3010F94DF454B015C01DD
:103EB00063962CAD3DAD4EAD5FAD63972F966CAD67
:103EC0007DAD8EAD9FAD2F970F94DF459B01AC016B
:103ED000C501B4010F94E3492B013C01C601D70190
:103EE0002F968CAF9DAFAEAFBFAF2F9761C06D96D1
:103EF0004EAD5FAD6D97BA0180E090E00F947E45C6
:103F000063962CAD3DAD4EAD5FAD63970F94DF452D
:103F10004B015C010F94BD4A6B017C01C501B401EA
:103F20000F94934C4B015C01A70196012B966CAD4D
:103F30007DAD8EAD9FAD2B970F94DF452B013C01DE
:103F4000A50194016B966CAD7DAD8EAD9FAD6B9769
:103F50000F94DF459B01AC01C301B2010F94E4490A
:103F60002B013C01A50194012B966CAD7DAD8EAD6E
:103F70009FAD2B970F94DF454B015C01A701960184
:103F80006B966CAD7DAD8EAD9FAD6B970F94DF459D
:103F90009B01AC01C501B4010F94E3492F966CAFAE
:103FA0007DAF8EAF9FAF2F9759E164965FAF649757
:103FB0009201A301A3966CAD7DAD8EAD9FADA3978D
:103FC0000F94E44969837A838B839C832F962CAD6D
:103FD0003DAD4EAD5FAD2F97A7966CAD7DAD8EAD6F
:103FE0009FADA7970F94E4496D837E838F83988755
:103FF000E3962CAD3DAD4EAD5FADE39769857A8517
:104000008B859C850F94E44969877A878B879C8789
:10401000E7962CAD3DAD4EAD5FADE7976D857E85E6
:104020008F8598890F94E4496D877E878F87988B59
:1040300080915002882321F0CE0101960F943A031B
:10404000E090E41389819A81AB81BC8188A399A314
:10405000AAA3BBA38D819E81AF81B8858CA39DA3AC
:10406000AEA3BFA389859A85AB85BC8588A799A790
:10407000AAA7BBA7CE0180960E94033ACE018096E4
:104080000F94A3248E01055C1F4F9E01235F3F4FB9
:104090004CE055E068E075E084E095E00E9433E58F
:1040A0006D968EAD9FAD6D9701966D969FAF8EAF5D
:1040B0006D979DCEE090E4138091E4049091E50427
:1040C000A091E604B091E70488A399A3AAA3BBA397
:1040D0008091E8049091E904A091EA04B091EB0486
:1040E0008CA39DA3AEA3BFA38091EC049091ED049B
:1040F000A091EE04B091EF0488A799A7AAA7BBA747
:10410000CE0180960E94033ACE0180960F94A3249C
:104110008E01055C1F4F20EF34E04CE055E068E075
:1041200075E084E095E00E9433E50E94883D0E949E
:104130005F3A0C94D634EAE6F2E184918F010F5F86
:104140001F4F882321F00E946A3AF801F6CFE3E47A
:10415000F2E084918F010F5F1F4F882311F40C94BC
:10416000D6340E946A3AF801F4CF80E50E94353CCB
:10417000882329F00E941F396B017C0103C0C12CE8
:10418000D12C760183E50E94353C882361F00E94A2
:10419000D33B20E030E04AE754E40F94DF450F942E
:1041A0002D4B6B017C010E9478CF809157028111C9
:1041B00005C060E089E592E00F945A000E945F3AE2
:1041C0008091810A9091820AA091830AB091840A19
:1041D000C80ED91EEA1EFB1E0E947FFBDC01CB012C
:1041E0008C199D09AE09BF09B7FD02C00C94D634E5
:1041F00080E00E9481BDF0CF0E94923D0C94D634A5
:104200000F946A1881110C94D63480E090E0A8ECE9
:10421000B2EC89839A83AB83BC8380E090E0A8EC06
:10422000B2E48D839E83AF83B88780E090E0A0EAFC
:10423000B1E489879A87AB87BC8780E50E94353CCB
:10424000882319F00E94A33B01C060E068A3BE016F
:104250006F5F7F4FCE0180960E941D880C94D634EC
:104260000E9478CF80E00E9481510E94B04A81E094
:10427000809346100E94D4720E94F5390E94964A9B
:1042800083E0809308020F94670D0C94D6340E944B
:104290000D6E0C94D634C090F404D090F504E090E8
:1042A000F604F090F70488E50E94353C811108C0BF
:1042B00020E030E0A901C701B6010F94E44902C033
:1042C0000E94D33B68A379A38AA39BA3C090F80460
:1042D000D090F904E090FA04F090FB0489E50E9484
:1042E000353C811108C020E030E0A901C701B601CA
:1042F0000F94E44902C00E94D33B9B01AC01698347
:104300007A838B839C8368A179A18AA19BA10F9456
:10431000EA06882311F40C94D63480E00E9481517F
:104320000E94B04A85E40E94353C882319F00E941F
:10433000C43B03C085E40E94063C01E021E0482F15
:10434000BE016F5F7F4FCE0180960E9406526B01C7
:104350007C019B01AC010F94DE4C811131C02CEA31
:1043600035EC47E257E368A179A18AA19BA10F949C
:10437000E449AB01BC018CE692E00E9404D72CEA30
:1043800035EC47E257E369817A818B819C810F94F8
:10439000E449AB01BC0187E692E00E9404D72CEA15
:1043A00035EC47E257E3C701B6010F94E449AB018E
:1043B000BC0182E692E00E9404D78AE00E946A3A39
:1043C0000E94964A0F94670D0C94D63481E0809336
:1043D000D1030C94D6340F945A2C0C94D6340F94E9
:1043E000EE2C0C94D63480913F1490914014833776
:1043F000910509F486C50CF0E3C08B34910509F4EE
:104400002EC40CF05AC08931910509F470C234F5FC
:104410008431910509F4E7C194F48131910509F4DF
:10442000DEC144F4029710F00C94D6340F94BB2BE9
:104430000C94D634429709F496C40C94D634863141
:10444000910509F419C20CF413C28731910509F4DE
:1044500019C2489709F42CC20C94D6348F319105B7
:1044600009F4D4C37CF48B31910509F45EC20CF4D9
:104470004EC28C31910509F45CC24E9709F463C2B7
:104480000C94D6348A32910509F4C4C32CF4809775
:1044900009F470C30C94D6348033910509F4BEC37B
:1044A000C19711F00C94D634F090CC0381E0F8263B
:1044B000F092CC03EEEDF2E0B5C38836910509F435
:1044C000E0C30CF044C08235910509F443C434F5CF
:1044D0008D34910509F4CDC30CF4C5C38E34910518
:1044E00009F4CBC38135910511F00C94D6340E94A8
:1044F000D0A70E9478CF0E9422BD1092BF131092C5
:10450000BE1368EE73E080E090E00E94C2FF60E0BE
:104510008DE093E00F945A000C94D63484359105C5
:1045200009F421C40CF41AC48535910509F44EC46C
:104530008C35910511F00C94D6349CEAC92E92E08A
:10454000D92E20EDE22E24E0F22E10E05AC48D3652
:10455000910509F4B6C39CF48A36910509F4D1C3D8
:104560000CF4A7C38B36910509F4F0C38C36910582
:1045700011F00C94D63410929D020C94D6348037EE
:10458000910509F486C36CF48E36910509F47DC358
:104590008F36910511F00C94D6340F94870E0C943D
:1045A000D6348137910509F47CC38237910511F027
:1045B0000C94D6340E9478CF0F94670D0C94D634A7
:1045C0008C32B1E09B0711F40C949D2C0CF07DC053
:1045D0008E3B910509F479C30CF043C089379105EE
:1045E00009F4C8C51CF58637910509F4DEC474F4D6
:1045F0008537910511F00C94D63460E080913D141C
:1046000090913E140F9479000C94D634873791051D
:1046100009F40EC58837910511F00C94D63481E069
:1046200080934610809345100C94D6348C389105B5
:1046300009F43BC34CF48D37910511F00C94D6343A
:104640000F94970C0C94D6348139910509F498C5D0
:104650008B39910511F00C94D6340E94527E0C9443
:10466000D6348D3C910509F4F9C6ACF4893C91052A
:1046700009F448C634F4883C910509F4FBC50C9450
:10468000D6348B3C910509F45FC68C3C910509F446
:1046900079C60C94D6348C3D910511F40C94152CEC
:1046A00044F4833D910511F00C94D634E7E8FEE222
:1046B000DDC78D3D910511F40C94242C823E9105AB
:1046C00011F40C946E2C0C94D634853AF1E09F07CB
:1046D00011F40C947D32A4F5803931E0930711F484
:1046E0000C94A831C4F48E3251E0950711F40C9467
:1046F000652D14F40C94C72C8F32B1E09B0711F494
:104700000C94B92D8336914011F00C94D6340F944B
:10471000300C0C94D6348239F1E09F0711F40C94DC
:10472000AF3114F40C94AB318A3931E0930709F4BA
:10473000B4C2843A914011F40C94B3310C94D63441
:10474000883552E0950711F40C946D33FCF4853FE5
:10475000B1E09B0711F40C9411334CF4843F914069
:1047600011F00C94D6340E94629F0C94D634863F8C
:1047700021E0920711F40C941433873F914011F01B
:104780000C94D6340F944B0C0C94D634833543E000
:10479000940711F40C941733A4F48939A2E09A0712
:1047A00009F4C9C68A39924011F00C94D63449E014
:1047B000E42E45E1F42E0CEA12E053E0D52ED00EA3
:1047C0004DC7803AE3E09E0709F413C2873E934049
:1047D00011F00C94D6340F941B0C0C94D6340F9417
:1047E000AA2B0C94D634E3E8F2E084918F010F5F9A
:1047F0001F4F882321F00E946A3AF801F6CF1092E9
:1048000016131092151340E050E0BA0181EC90E1CC
:104810000E9497918BE1E1ECF0E1DE0115960190A9
:104820000D928A95E1F78091BF109091C0109C8302
:104830008B8386E093E09A83898340E050E0BE0159
:104840006F5F7F4F83EC93E00E949CF7CE0101964F
:104850000E9418BDE4E7F2E084918F010F5F1F4FC3
:10486000882311F40C94D6340E946A3AF801F4CFEC
:104870000E94407A0C94D6341092901010929110AD
:104880000C94D634E0913D14F0913E14808188233D
:1048900029F0803209F410823196F8CF40E061E0CF
:1048A00080913D1490913E140E94F7760C94D6347A
:1048B00019821A821B821C8218A219A21AA21BA298
:1048C00080913313882341F040E0BE016F5F7F4F3A
:1048D000CE0180960F94E00480919110882319F006
:1048E00081E0809390100F9414190C94D634109298
:1048F000901085E690E10E94ECAD84E992E09093FF
:104900002207809321070E94854E0C94D634809113
:104910009110882311F40C94D63483E50E94353C21
:1049200081110C94E2340C94D6340F942B2A0C94FD
:10493000D63440E060E080913D1490913E140E9496
:10494000F7760C94D63480919110882311F40C944E
:10495000D6348BE592E10E9456918BE592E10F945B
:10496000DA0010928F1010928E10E0903D14F090AB
:104970003E1480919110882311F40C94D6340E9437
:10498000EC761D8218861C821B8286E093E09A8357
:1049900089838DEB90E19093DD108093DC10D7013B
:1049A0008C918F3209F067C06FE270E0C7010F94FD
:1049B000754D8C010F5F1F4FFE0131964F010115A0
:1049C000110509F45EC06FE270E0C8010F94754DE7
:1049D0006C01009709F456C00817190708F052C077
:1049E0005C01A01AB10AA501B801CE0180960F940E
:1049F0009E4DE0E2F0E0EC0FFD1FEA0DFB1D108282
:104A00008E01005E1F4FD8018D918D01882319F012
:104A10000E946A3AF8CF8AE00E946A3A6091DC10FC
:104A20007091DD106115710511F06C5F7F4F21E011
:104A3000AE01405E5F4FCE0105960E9492978111B4
:104A400012C0BE01605E7F4F8FEB92E00E9468E370
:104A50008EE20E946A3A8AE00E946A3AC4010E9489
:104A600018BD0C94D6349092DD108092DC10860133
:104A70000F5F1F4FA4CF8EED90E19093DD108093D8
:104A8000DC1087016091DC107091DD1061157105FB
:104A900011F06C5F7F4F18A21BA222E0A801CE018B
:104AA00080960E949297811102C0F12C1EC0CE0107
:104AB00080960E940AF78823C1F36CA57DA58EA578
:104AC0009FA541E00E94A78F882379F3E8A9B0E26F
:104AD000EB9FF0011124EA5EFA4F309731F385EE37
:104AE00080831BA20E94678FF82ECE0180960E94C1
:104AF000EF39FF2009F1E9E9F2E084917F012FEF1E
:104B0000E21AF20A882321F00E946A3AF701F5CFEF
:104B1000D8018D918D01882319F00E946A3AF8CF4F
:104B20008AE00E946A3A10920C1310920D131092B0
:104B30000E1310920F1318C0E7EAF2E084917F0180
:104B4000BFEFEB1AFB0A882321F00E946A3AF701B3
:104B5000F5CFF80181918F01882319F00E946A3AFC
:104B6000F8CF8EE20E946A3ACE0101960E9418BDEB
:104B70000C94D6348091901081110E9478CF80914E
:104B80009110882311F40C94D63480E50E94353CB2
:104B9000882319F00E94C43B03C080E50E94063CB4
:104BA000182F482F61E080913D1490913E140E948F
:104BB000F77683E50E94353C882381F00E94A33B71
:104BC000AB01BC0140930C1350930D1360930E1373
:104BD00070930F138BE592E10E9497918091911051
:104BE000882319F081E08093901011110C94D63431
:104BF0007ACE80913D1490913E1421E020938F1045
:104C000040E060E00E94F7760C94D6340F94EA29D5
:104C10000C94D6340F9496290C94D6340E941B80A1
:104C20000C94D63484918F010F5F1F4F882321F09D
:104C30000E946A3AF801F6CFF11003C0E8EDF2E005
:104C400002C0E3EDF2E084918F010F5F1F4F8823D4
:104C500011F40C94D6340E946A3AF801F4CF0F9400
:104C600014190C94D63485E690E10E94ECAD0C94B6
:104C7000D6340E949DF50C94D6340E94F27E0C949A
:104C8000D6340E949D7E0C94D6340F94FE0E0C9464
:104C9000D63489EE92E00E9432BD0F94560C0C94EB
:104CA000D6340F945D0E0C94D6340F94440E0C94AD
:104CB000D6340E94807E10923613109235130C94D5
:104CC00042380F940E0F0C94D6348091E61383FF74
:104CD00002C00C94D63460E080E093E00F945A0058
:104CE00083E50E94353C68968FAF689781110C94DC
:104CF000F23482E50E94353C81110C94F2340C941C
:104D0000D63480E50E94353C811108C083E50E94BD
:104D1000353C811109C03FEF20E00AC00E94B33B3F
:104D200081110C94D634F2CF0E94A33B362F272F4B
:104D3000832F922F8F3F910519F010F08FEF90E0A5
:104D40009093BF138093BE130C94D6340E94437E7D
:104D50000C94D6341092D0030C94D63481E0809316
:104D6000D0030C94D63483E50E94353C8823A1F00F
:104D70000E94D33B20E030E04AE754E40F94DF4543
:104D80000F942D4B60932502709326028093270287
:104D9000909328020C94D63488E50E94063C811139
:104DA0000C94553689E50E94063C81110C945536C9
:104DB0008AE50E94063C81110C94553685E40E94D8
:104DC000063C81110C9455360C947B3683E50E9489
:104DD000063C882311F40C94D6340E94D33B20E087
:104DE00030E04AE754E40F94DF450F942D4B609375
:104DF000850A7093860A8093870A9093880A0C9498
:104E0000D634D6018D916D010E94063C882309F4A9
:104E10006DC0133009F063C00E94D33B4B015C01AD
:104E200020E030E040EA51E40F947A4587FF4EC01D
:104E3000A50194016091DC047091DD048091DE0491
:104E40009091DF040F94C04A2B013C019B01AC01FF
:104E50006091440A7091450A8091460A9091470AF0
:104E60000F94DF456093440A7093450A8093460A85
:104E70009093470AA30192016091FD137091FE1374
:104E80008091FF13909100140F94DF456093FD1300
:104E90007093FE138093FF13909300146091E10FC1
:104EA0007091E20F8091E30F9091E40F0F947E4593
:104EB000A30192010F94DF450F942D4B6093E10FF6
:104EC0007093E20F8093E30F9093E40F8092DC04E1
:104ED0009092DD04A092DE04B092DF0407C00E942D
:104EE000D33BF70160837183828393831F5FF4E078
:104EF000EF0EF11C143009F084CF0E944DE40C94A5
:104F0000D634E5EDF3E084918F010F5F1F4F8823C6
:104F100021F00E946A3AF801F6CF60E085EC93E058
:104F20000F94230D61E08EEB93E00F94230D61E06D
:104F300083EB93E00F94230D61E083EA93E00F94F9
:104F4000230D60E08AE993E00F94230D61E080E98E
:104F500093E00F94230D61E086E893E00F94230D16
:104F600061E08EE793E00F94230D61E080E793E02A
:104F70000F94230D60E082E693E00F94230D60E030
:104F800083E593E00F94230D60E085E493E00F94B4
:104F9000230D60E08FE293E00F94230D60E08EE13B
:104FA00093E00F94230D0C94D63485E40E94353C95
:104FB000882319F00E94C43B03C085E40E94063C8C
:104FC000882361F0E7E8FEE284918F010F5F1F4FB5
:104FD000882321F00E946A3AF801F6CF81E40E940A
:104FE000353C882319F00E94C43B03C081E40E9431
:104FF000063C882361F0ECE9F4E084918F010F5FB7
:105000001F4F882321F00E946A3AF801F6CF0091E1
:105010003D1410913E14D8018D918D01882319F013
:105020000E946A3AF8CF8AE00E946A3A0C94D63419
:10503000EBECF4E084918F010F5F1F4F882321F088
:105040000E946A3AF801F6CFE3ECF4E084918F0114
:105050000F5F1F4F882321F00E946A3AF801F6CFB4
:10506000649903C00AE213E002C00FE213E0F80102
:1050700081918F01882319F00E946A3AF8CF8AE063
:105080000E946A3AEBEBF4E084918F010F5F1F4FAF
:10509000882321F00E946A3AF801F6CF809103013B
:1050A00080FD03C00AE213E002C00FE213E0D80162
:1050B0008D918D01882319F00E946A3AF8CF8AE019
:1050C0000E946A3AE3EBF4E084918F010F5F1F4F77
:1050D000882321F00E946A3AF801F6CF4B9B03C067
:1050E0000AE213E002C00FE213E0F80181918F01A0
:1050F000882319F00E946A3AF8CF8AE00E946A3A3F
:10510000EBEAF4E084918F010F5F1F4F882321F0B9
:105110000E946A3AF801F6CF4A9903C00AE213E006
:1051200002C00FE213E0D8018D918D01882319F0A0
:105130000E946A3AF8CF8AE00E946A3AE0EAF4E014
:1051400084918F010F5F1F4F882321F00E946A3ADC
:10515000F801F6CF1D9903C00AE213E002C00FE286
:1051600013E0F80181918F01882309F45CCF0E943C
:105170006A3AF7CF10924610109245100C94D6342C
:1051800083E50E94353C882319F00E94A33B02C0AE
:1051900060E070E08B01112702301105D4F0EAE6DF
:1051A000F2E184918F010F5F1F4F882321F00E944D
:1051B0006A3AF801F6CFE5EEF4E084918F010F5FD3
:1051C0001F4F882311F40C94D6340E946A3AF801D8
:1051D000F4CF88E40E94353C8823A9F00E94A33BC9
:1051E0006A3A71053CF06530F1E07F072CF064E02D
:1051F00071E002C06AEA70E0F801EE0FFF1FEC5D9B
:10520000F54F7183608386E40E94353C8823A9F0C2
:105210000E94A33BF801EE0FFF1FE85DF54F71837D
:1052200060836F3F710519F014F06FEF70E077FF46
:1052300002C060E070E07183608382E40E94353CCC
:10524000882311F40C94D6340E94A33B6530710579
:1052500034F0683871052CF067E870E002C065E052
:1052600070E0000F111FF801E05EF54F718360835D
:105270000C94D63488EC90E00E94274E81110C9457
:10528000D63484E40E94063C8823C1F10E94D33BBB
:1052900011E020E030E0A9010F947A45811101C0AE
:1052A00010E01093500A112349F10E94D33BE09182
:1052B000C00924E0E29FF0011124E45BF54F608314
:1052C00071838283938320E030E0A90160914C0ACE
:1052D00070914D0A80914E0A90914F0A0F947A4531
:1052E00081110CC080E090E0A0EEBFE380934C0AF7
:1052F00090934D0AA0934E0AB0934F0A0E9457D73D
:105300000C94D634E1E0EE2EE4E1FE2E0CEA12E03D
:10531000F4E0DF2ED00ED8018D918D010E94063C65
:10532000882349F00E94D33B0F942D4BF7016083F3
:10533000718382839383F4E0EF0EF11CD012EBCFE4
:105340000E94E3E30C94D63461EFE62E63E1F62E7F
:105350000CEA12E074E0D72ED00ED8018D918D01A9
:105360000E94063C882339F00E94D33BF7016083FA
:10537000718382839383F4E0EF0EF11CD012EDCFA2
:105380000C94D63483E50E94063C8823D9F00E9411
:10539000D33BAB01BC014093191450931A14609392
:1053A0001B1470931C1440931114509312146093A7
:1053B00013147093141481E695E00E9421D78AE0BB
:1053C0000E946A3A80E50E94063C882399F00E9478
:1053D000D33BAB01BC014093191450931A14609352
:1053E0001B1470931C1484E495E00E9421D78AE07A
:1053F0000E946A3A82E50E94063C882399F00E9446
:10540000D33BAB01BC014093151450931614609329
:1054100017147093181485E295E00E9421D78AE052
:105420000E946A3A84E50E94063C882311F40C9499
:10543000D6340E94D33BAB01BC014093111450936E
:105440001214609313147093141487E095E00E9473
:1054500021D78AE00E946A3A0C94D63483E50E94F0
:10546000063C882351F00E94D33B6093ED13709368
:10547000EE138093EF139093F01384E50E94063CA3
:10548000882351F00E94D33B6093E9137093EA1391
:105490008093EB139093EC1382E40E94063C8823E4
:1054A00051F00E941F396093280770932907809359
:1054B0002A0790932B0788E50E94063C882351F029
:1054C0000E94D33B6093380A7093390A80933A0A5A
:1054D00090933B0A89E50E94063C882351F00E9484
:1054E000D33B60933C0A70933D0A80933E0A9093AD
:1054F0003F0A8AE50E94063C882351F00E94D33B74
:105500006093400A7093410A8093420A9093430A41
:1055100085E40E94063C882311F40C94D6340E9442
:10552000D33B6093440A7093450A8093460A909354
:10553000470A0C94D63488E40E94063C882351F034
:105540000E94D33B60931515709316158093171521
:10555000909318158CE40E94063C882351F00E9419
:10556000D33B6093191570931A1580931B15909374
:105570001C1582E50E94063C882351F00E94D33B13
:105580006093051570930615809307159093081581
:1055900083E50E94063C882351F00E94D33B609330
:1055A000240770932507809326079093270782E4AA
:1055B0000E94063C882351F00E94D33B6093F5146F
:1055C0007093F6148093F7149093F81488E50E9472
:1055D000063C882351F00E94D33B6093F9147093EA
:1055E000FA148093FB149093FC1489E50E94063C06
:1055F000882351F00E94D33B6093FD147093FE14F6
:105600008093FF14909300158AE50E94063C88233E
:1056100051F00E94D33B6093011570930215809363
:105620000315909304150F94B6230C94D6340E945E
:10563000D33B20E030E0A9010F947A4518163CF0E6
:105640000E94D33BF7016083718382839383F4E0EC
:10565000EF0EF11CD01611F40C94D634D8018D91B4
:105660008D010E94063C882391F3E1CF84918F0144
:105670000F5F1F4F882321F00E946A3AF801F6CF8E
:1056800083E50E94063C882321F00E94C43B80935E
:105690005002E1EBF5E084918F010F5F1F4F8823EB
:1056A00021F00E946A3AF801F6CF809150028111F0
:1056B00003C0EDEAF5E002C0E9EAF5E084918F016C
:1056C0000F5F1F4F882321F00E946A3AF801F6CF3E
:1056D000E1EAF5E084918F010F5F1F4F882321F0ED
:1056E0000E946A3AF801F6CF20914E1330914F1381
:1056F00040915013509151136091440270914502B2
:1057000080914602909147020F94E449AB01BC019D
:105710008FE995E00E9421D72091521330915313C5
:105720004091541350915513609148027091490271
:1057300080914A0290914B020F94E449AB01BC0165
:105740008CE995E00E9421D7209156133091571390
:10575000409158135091591360914C0270914D0231
:1057600080914E0290914F020F94E449AB01BC012D
:1057700089E995E00E9421D7E1E9F5E084918F0164
:105780000F5F1F4F882321F00E946A3AF801F6CF7D
:1057900020914E1330914F1340915013509151135B
:1057A000609138027091390280913A0290913B02E7
:1057B0000F94E449AB01BC018FE895E00E9421D72A
:1057C000209152133091531340915413509155131B
:1057D00060913C0270913D0280913E0290913F02A7
:1057E0000F94E449AB01BC018CE895E00E9421D7FD
:1057F00020915613309157134091581350915913DB
:105800006091400270914102809142029091430266
:105810000F94E449AB01BC0189E895E00E9421D7CF
:105820008AE00E946A3A0C94D63483E50E94353CA3
:10583000882311F40C94D6340E94A33B7093300259
:1058400060932F020C94D6348DED90E00E94274E89
:1058500081110C94D63483E50E94353C882311F4E1
:105860000C94D6340091C00910E00E94A33B000FB5
:10587000111FF801E35DFD4F718360838091C009C2
:1058800090E08C01000F111F000F111F9801275D80
:105890003D4F7901880F991FFC01E35DFD4F608149
:1058A0007181072E000C880B990B0F9480452AE01C
:1058B00037ED43E25CE30F94DF45F801EB52F54F1F
:1058C00020813181428153810F94DF45D7016D934F
:1058D0007D938D939C9313970C94D63480E50E940E
:1058E000063C882311F40C94D6340E94A33B6B0130
:1058F0007C0183E50E94353C882321F00E94A33B74
:105900008B0102C00FEF1FEFC8010196039710F043
:105910000C94D634D7FE02C00C94D6349C2DE1EC06
:10592000F5E088E28E0F2491921711F40C94D6348E
:1059300031968E13F8CF0C94193883E50E94353CCC
:10594000882319F00E94A33B02C064E071E079A3B0
:1059500068A380E50E94353C882339F00E94A33B70
:105960006938B3E17B0730F402C068EE73E07A83F4
:10597000698304C088E893E19A838983BE01605EED
:105980007F4FCE0101960E94D6F60C94D63485E462
:105990000E94353C811110C080E50E94063C88239E
:1059A00091F00E94D33B6093130A7093140A809382
:1059B000150A9093160A07C00E94B33B882361F32F
:1059C000EAE6F2E171C089E40E94063C882381F096
:1059D0000E94D33B2CEA35EC47E25EE30F94DF45AF
:1059E00060931B0A70931C0A80931D0A90931E0AF1
:1059F00084E40E94063C882381F00E94D33B2CEA79
:105A000035EC47E25EE30F94C04A6093170A709347
:105A1000180A8093190A90931A0AE7E8FEE2849123
:105A20008F010F5F1F4F882321F00E946A3AF8010F
:105A3000F6CF4091130A5091140A6091150A7091A3
:105A4000160A81EF95E00E9421D72CEA35EC47E257
:105A50005EE360911B0A70911C0A80911D0A90916F
:105A60001E0A0F94C04AAB01BC018DEE95E00E9466
:105A700004D72CEA35EC47E25EE36091170A709197
:105A8000180A8091190A90911A0A0F94DF45AB0108
:105A9000BC0189EE95E00E9404D78AE00E946A3A30
:105AA00085C70E946A3AF80184918F010F5F1F4FEA
:105AB0008111F7CF05E413E0F80181918F0188236C
:105AC00009F4B1CA0E946A3AF7CF83E50E94063C06
:105AD000182F882371F00E94D33B0F94284B7093AA
